//NEWPSWDT JOB 1,'CREATE PS WITH DATA',
//            MSGCLASS=X,MSGLEVEL=(1,1),
//            NOTIFY=&SYSUID,TIME=1
//**********************************************************************
//** JCL TO CREATE A PS DATASET AND INSERT DATA
//**********************************************************************
//STEP001  EXEC PGM=ICEGENER
//**********************************************************************
//SYSPRINT DD SYSOUT=*
//SYSUT2   DD DSN=FERMYNO.TEST.PSDATA,
//            DISP=(NEW,CATLG,DELETE),
//            SPACE=(TRK,(10,100),RLSE),
//            DCB=(LRECL=80,RECFM=FB,BLKSIZE=0,DSORG=PS)
//**********************************************************************
//** INSERT DATA
//**********************************************************************
//** FIELDS:
//** ID         5 POS
//** CLIENTE   25 POS 
//** DOCUMENTO 10 POS
//** AGENCIA    4 POS
//** CONTA      6 POS
//** TIPO       2 POS
//** SINAL      1 POS
//** SALDO     16 POS
//**********************************************************************
//SYSUT1   DD *
00001Joao Silva               71612345674454465884PF+0000000001234567
00002Maria Santos             89654321909698758921PF+0000000009876543
00003Pedro Ferreira           32658741233279583214PF+0000000004567892
00004Ana Oliveira             90234567815478673829PF-0000000006759210
00005Carlos Rodrigues         17892134562136365892PF-0000000002413976
00006Sofia Costa              68712345674454465884PF+0000000001234567
00007Ricardo Pereira          95654321909698758921PF+0000000009876543
00008Mariana Fernandes        42658741233279583214PF-0000000004567892
00009Andre Santos             54782134565478673829PF-0000000006759210
00010Beatriz Almeida          91345234562136365892PF+0000000002413976
00011Lucas Oliveira           81712345674454465884PF+0000000001234567
00012Gabriela Costa           99654321909698758921PF+0000000009876543
00013Rafaela Pereira          22658741233279583214PF-0000000004567892
00014Gustavo Fernandes        44734567815478673829PF-0000000006759210
00015Carolina Rodrigues       78332134562136365892PF+0000000002413976
00016Matheus Santos           79782345674454465884PF+0000000001234567
00017Isabela Silva            11654321909698758921PF+0000000009876543
00018Rodrigo Ferreira         32658741233279583214PF-0000000004567892
00019Laura Oliveira           28734567815478673829PF-0000000006759210
00020Juliana Costa            42662134562136365892PF+0000000002413976
00021Daniel Santos            60782345674454465884PF+0000000001234567
00022Luisa Almeida            74654321909698758921PF+0000000009876543
00023Marcos Pereira           52658741233279583214PF-0000000004567892
00024Amanda Fernandes         74734567815478673829PF-0000000006759210
00025Eduardo Rodrigues        94332134562136365892PF+0000000002413976
00026Vitor Santos             60712345674454465884PF+0000000001234567
00027Patricia Silva           88654321909698758921PF+0000000009876543
00028Raphael Ferreira         52658741233279583214PF-0000000004567892
00029Fernanda Oliveira        22734567815478673829PF-0000000006759210
00030Luciana Costa            51662134562136365892PF+0000000002413976
00031Leonardo Santos          99782345674454465884PF+0000000001234567
00032Gabriel Almeida          88654321909698758921PF+0000000009876543
00033Camila Pereira           92658741233279583214PF-0000000004567892
00034Pedro Fernandes          36734567815478673829PF-0000000006759210
00035Marina Rodrigues         23632134562136365892PF+0000000002413976
00036Andrea Santos            78712345674454465884PF+0000000001234567
00037Paulo Silva              23654321909698758921PF+0000000009876543
00038Mariana Ferreira         92658741233279583214PF-0000000004567892
00039Joana Oliveira           82734567815478673829PF-0000000006759210
00040Ricardo Costa            71662134562136365892PF+0000000002413976
00041Carla Santos             38782345674454465884PF+0000000001234567
00042Vivian Almeida           71654321909698758921PF+0000000009876543
00043Rafael Pereira           92658741233279583214PF-0000000004567892
00044Mariana Fernandes        71734567815478673829PF-0000000006759210
00045Eduardo Rodrigues        22732134562136365892PF+0000000002413976
00046Isabela Santos           83712345674454465884PF+0000000001234567
00047Gustavo Silva            54654321909698758921PF+0000000009876543
00048Laura Ferreira           62658741233279583214PF-0000000004567892
00049Carlos Oliveira          31734567815478673829PF-0000000006759210
00050Sofia Costa              71662134562136365892PF+0000000002413976
00051Ricardo Santos           71682345674454465884PF+0000000001234567
00052Mariana Almeida          71654321909698758921PF+0000000009876543
00053Pedro Pereira            62658741233279583214PF-0000000004567892
00054Gabriela Fernandes       41734567815478673829PF-0000000006759210
00055Lucas Rodrigues          11632134562136365892PF+0000000002413976
00056Laura Santos             61712345674454465884PF+0000000001234567
00057Fernando Silva           49654321909698758921PF+0000000009876543
00058Amanda Ferreira          72658741233279583214PF-0000000004567892
00059Rafael Oliveira          53734567815478673829PF-0000000006759210
00060Mariana Costa            81662134562136365892PF+0000000002413976
00061Rodrigo Santos           44682345674454465884PF+0000000001234567
00062Carolina Almeida         71654321909698758921PF+0000000009876543
00063Joao Pereira             72658741233279583214PF-0000000004567892
00064Mariana Fernandes        59734567815478673829PF-0000000006759210
00065Andre Rodrigues          41632134562136365892PF+0000000002413976
00066Sophia Santos            91712345674454465884PF+0000000001234567
00067Matheus Silva            51654321909698758921PF+0000000009876543
00068Julia Ferreira           82658741233279583214PF-0000000004567892
00069Gustavo Oliveira         88734567815478673829PF-0000000006759210
00070Gabriela Costa           21662134562136365892PF+0000000002413976
00071Lucas Santos             54682345674454465884PF+0000000001234567
00072Lara Almeida             71654321909698758921PF+0000000009876543
00073Pedro Pereira            92658741233279583214PF-0000000004567892
00074Larissa Fernandes        71734567815478673829PF-0000000006759210
00075Gabriel Rodrigues        21632134562136365892PF+0000000002413976
00076Fernanda Santos          72712345674454465884PF+0000000001234567
00077Giovanni Silva           41654321909698758921PF+0000000009876543
00078Rafaela Ferreira         42658741233279583214PF-0000000004567892
00079Gabriel Oliveira         56734567815478673829PF-0000000006759210
00080Amanda Costa             61662134562136365892PF+0000000002413976
00081Vitor Santos             81782345674454465884PF+0000000001234567
00082Mariana Almeida          11654321909698758921PF+0000000009876543
00083Rodrigo Pereira          52658741233279583214PF-0000000004567892
00084Isabela Fernandes        52734567815478673829PF-0000000006759210
00085Lucas Rodrigues          31632134562136365892PF+0000000002413976
00086Carolina Santos          81712345674454465884PF+0000000001234567
00087Fernando Silva           69654321909698758921PF+0000000009876543
00088Amanda Ferreira          82658741233279583214PF-0000000004567892
00089Rafaela Oliveira         55734567815478673829PF-0000000006759210
00090Mariana Costa            61662134562136365892PF+0000000002413976
00091Gustavo Santos           21782345674454465884PF+0000000001234567
00092Ana Almeida              81654321909698758921PF+0000000009876543
00093Rafael Pereira           52658741233279583214PF-0000000004567892
00094Mariana Fernandes        63734567815478673829PF-0000000006759210
00095Pedro Rodrigues          21632134562136365892PF+0000000002413976
00096Carolina Santos          71712345674454465884PF+0000000001234567
00097Giovanni Silva           11654321909698758921PF+0000000009876543
00098Rafaela Ferreira         52658741233279583214PF-0000000004567892
00099Gabriel Oliveira         78734567815478673829PF-0000000006759210
00100Amanda Costa             31662134562136365892PF+0000000002413976
00101Vitor Santos             71682345674454465884PF+0000000001234567
00102Mariana Almeida          41654321909698758921PF+0000000009876543
00103Rodrigo Pereira          82658741233279583214PF-0000000004567892
00104Isabela Fernandes        42734567815478673829PF-0000000006759210
00105Lucas Rodrigues          51632134562136365892PF+0000000002413976
00106Carolina Santos          11712345674454465884PF+0000000001234567
00107Fernando Silva           19654321909698758921PF+0000000009876543
00108Amanda Ferreira          82658741233279583214PF-0000000004567892
00109Rafaela Oliveira         15734567815478673829PF-0000000006759210
00110Mariana Costa            41662134562136365892PF+0000000002413976
00111Gustavo Santos           11782345674454465884PF+0000000001234567
00112Ana Almeida              61654321909698758921PF+0000000009876543
00113Rafael Pereira           92658741233279583214PF-0000000004567892
00114Mariana Fernandes        33734567815478673829PF-0000000006759210
00115Pedro Rodrigues          21632134562136365892PF+0000000002413976
00116Carolina Santos          41712345674454465884PF+0000000001234567
00117Giovanni Silva           71654321909698758921PF+0000000009876543
00118Rafaela Ferreira         72658741233279583214PF-0000000004567892
00119Gabriel Oliveira         56734567815478673829PF-0000000006759210
00120Amanda Costa             61662134562136365892PF+0000000002413976
00121Vitor Santos             81782345674454465884PF+0000000001234567
00122Mariana Almeida          71654321909698758921PF+0000000009876543
00123Rodrigo Pereira          52658741233279583214PF-0000000004567892
00124Isabela Fernandes        52734567815478673829PF-0000000006759210
00125Lucas Rodrigues          31632134562136365892PF+0000000002413976
00126Carolina Santos          81712345674454465884PF+0000000001234567
00127Fernando Silva           69654321909698758921PF+0000000009876543
00128Amanda Ferreira          82658741233279583214PF-0000000004567892
00129Rafaela Oliveira         55734567815478673829PF-0000000006759210
00130Mariana Costa            61662134562136365892PF+0000000002413976
00131Gustavo Santos           21782345674454465884PF+0000000001234567
00132Ana Almeida              81654321909698758921PF+0000000009876543
00133Rafael Pereira           52658741233279583214PF-0000000004567892
00134Mariana Fernandes        63734567815478673829PF-0000000006759210
00135Pedro Rodrigues          21632134562136365892PF+0000000002413976
00136Carolina Santos          71712345674454465884PF+0000000001234567
00137Giovanni Silva           11654321909698758921PF+0000000009876543
00138Rafaela Ferreira         52658741233279583214PF-0000000004567892
00139Gabriel Oliveira         78734567815478673829PF-0000000006759210
00140Amanda Costa             31662134562136365892PF+0000000002413976
00141Vitor Santos             71682345674454465884PF+0000000001234567
00142Mariana Almeida          41654321909698758921PF+0000000009876543
00143Rodrigo Pereira          82658741233279583214PF-0000000004567892
00144Isabela Fernandes        42734567815478673829PF-0000000006759210
00145Lucas Rodrigues          51632134562136365892PF+0000000002413976
00146Carolina Santos          11712345674454465884PF+0000000001234567
00147Fernando Silva           19654321909698758921PF+0000000009876543
00148Amanda Ferreira          82658741233279583214PF-0000000004567892
00149Rafaela Oliveira         15734567815478673829PF-0000000006759210
00150Mariana Costa            41662134562136365892PF+0000000002413976
00151Gustavo Santos           61782345674454465884PF+0000000001234567
00152Ana Almeida              71654321909698758921PF+0000000009876543
00153Rafael Pereira           52658741233279583214PF-0000000004567892
00154Mariana Fernandes        91746321805787953252PF+0000000002345678
00155Pedro Oliveira           12876543216659857194PF-0000000007654321
00156Carolina Lima            74512345907654329856PF+0000000006543210
00157Eduardo Costa            67895643211233451234PF-0000000005432109
00158Isabella Silva           37829074509876543217PF+0000000004321098
00159Luiz Santos              12347654329876543210PF-0000000003210987
00160Juliana Rodrigues        89076543217654321098PF+0000000002109876
00161Marcelo Almeida          87432908409234567812PF-0000000001098765
00162Amanda Ferreira          90873459823456789013PF+0000000000987654
00163Bruno Oliveira           43210987654321098765PF-0000000009876543
00164Larissa Sousa            89765432109876543210PF+0000000008765432
00165Gabriel Costa            57890234567890987654PF-0000000007654321
00166Camila Rodrigues         76456789098765432109PF+0000000006543210
00167Ricardo Lima             54321678909876543210PF-0000000005432109
00168Fernanda Santos          78654321098765432109PF+0000000004321098
00169Mateus Almeida           78965432109876543210PF-0000000003210987
00170Isabela Ferreira         45678123456789098765PF+0000000002109876
00171Vinicius Oliveira        56789098765432109876PF-0000000001098765
00172Julia Sousa              65432109876543210987PF+0000000000987654
00173Leonardo Costa           87654321098765432109PF-0000000009876543
00174Lara Lima                54321098765432109876PF+0000000008765432
00175Matheus Santos           54321987654321098765PF-0000000007654321
00176Aline Rodrigues          43210987654321098765PF+0000000006543210
00177Rafaela Ferreira         32109876543210987654PF-0000000005432109
00178Felipe Almeida           54321098765432109876PF+0000000004321098
00179Carolina Oliveira        43210987654321098765PF-0000000003210987
00180Ricardo Sousa            54321098765432109876PF+0000000002109876
00181Mariana Lima             65432109876543210987PF-0000000001098765
00182Pedro Costa              54321098765432109876PF+0000000000987654
00183Lorena Santos            43210987654321098765PF-0000000009876543
00184Eduardo Rodrigues        54321098765432109876PF+0000000008765432
00185Luana Ferreira           65432109876543210987PF-0000000007654321
00186Guilherme Oliveira       43210987654321098765PF+0000000006543210
00187Laura Lima               32109876543210987654PF-0000000005432109
00188Rafael Almeida           43210987654321098765PF+0000000004321098
00189Fernanda Sousa           54321098765432109876PF-0000000003210987
00190Gustavo Costa            32109876543210987654PF+0000000002109876
00191Amanda Santos            43210987654321098765PF-0000000001098765
00192Caio Rodrigues           54321098765432109876PF+0000000000987654
00193Luiza Ferreira           32109876543210987654PF-0000000009876543
00194Rafael Lima              43210987654321098765PF+0000000008765432
00195Isabela Almeida          54321098765432109876PF-0000000007654321
00196Carlos Oliveira          32109876543210987654PF+0000000006543210
00197Marina Sousa             43210987654321098765PF-0000000005432109
00198Pedro Almeida            54321098765432109876PF+0000000004321098
00199Larissa Costa            32109876543210987654PF-0000000003210987
00200Gustavo Santos           43210987654321098765PF+0000000002109876
/*